:020000000129D4
:10000600103083120313FD00FD0B072800000800C3
:10001600083083120313FC002330FD00FD0B11286A
:06002600FC0B112808008C
:04002C0000000800C8
:1000300083120313B31B1E2886111F288615331B3A
:100040002328061124280615B31A282886102928E3
:100050008614331A2D2806102E2806142D1832283F
:10006000061633280612861616208612B3193A2869
:1000700086113B28861533193F280611402806159E
:10008000B3184428861045288614331849280610CA
:100090004A2806142D184E2806164F2806128616D2
:1000A000162086122D1C56280B20572803200800E6
:0E00B000831203132C088A002B08820008001C
:1000BE00831203132D103208B30018202D140800DC
:1000CE008316031386120612061086100611861169
:1000DE0083128612061286110611861006100B2048
:1000EE000B200B20861406148616162086120B2063
:1000FE008616162086120B208616162086120B20C8
:10010E0006108616162086120B20861616208612CC
:10011E00861086158616162086120B20861106145A
:10012E0086161620861206108616162086120B20AC
:10013E0086161620861206148616162086120B2098
:10014E0006108616162086128615061586140614B7
:0C015E008616162086120B202D140800B7
:10016A00C728803083120313AE00DA28C030AE00ED
:10017A00DA289430AE00DA28D430AE00DA2880309B
:10018A00AE00DA28831203132E08013A0319B6289F
:10019A002E08023A0319BB282E08033A0319BE286F
:1001AA002E08043A0319C128C4282F03F0002E0888
:1001BA00F0077008AE007008B30018202D10B101C6
:1001CA0031083007840000080319F3283108300782
:1001DA0084000008B2005F20B10AE5282D14080047
:1001EA0058208A110A128000840AAB0A0319AC0A41
:0801FA00F003031DF5280800C5
:10020200453083120313A0006C30A1006530A200B8
:100212007430A3007230A4006F30A5006E30A600C7
:100222006930A7006330A8006130A900AA016720E5
:100232000130B30018200C30B30018200130AE009A
:0C0242000130AF002030B000B5202629AC
:02400E006A2125
:00000001FF
